{
  "_format": "hh-sol-artifact-1",
  "contractName": "VerifiEye",
  "sourceName": "contracts/VerifiEye.sol",
  "abi": [
    {
      "inputs": [],
      "stateMutability": "nonpayable",
      "type": "constructor"
    },
    {
      "anonymous": false,
      "inputs": [
        {
          "indexed": true,
          "internalType": "uint256",
          "name": "productId",
          "type": "uint256"
        },
        {
          "indexed": true,
          "internalType": "address",
          "name": "from",
          "type": "address"
        },
        {
          "indexed": true,
          "internalType": "address",
          "name": "to",
          "type": "address"
        }
      ],
      "name": "OwnershipTransferred",
      "type": "event"
    },
    {
      "anonymous": false,
      "inputs": [
        {
          "indexed": true,
          "internalType": "uint256",
          "name": "productId",
          "type": "uint256"
        },
        {
          "indexed": true,
          "internalType": "address",
          "name": "manufacturer",
          "type": "address"
        }
      ],
      "name": "ProductAdded",
      "type": "event"
    },
    {
      "anonymous": false,
      "inputs": [
        {
          "indexed": true,
          "internalType": "uint256",
          "name": "productId",
          "type": "uint256"
        },
        {
          "indexed": true,
          "internalType": "address",
          "name": "scanner",
          "type": "address"
        },
        {
          "indexed": false,
          "internalType": "uint256",
          "name": "scanCount",
          "type": "uint256"
        }
      ],
      "name": "QRScanned",
      "type": "event"
    },
    {
      "anonymous": false,
      "inputs": [
        {
          "indexed": true,
          "internalType": "address",
          "name": "seller",
          "type": "address"
        }
      ],
      "name": "SellerAdded",
      "type": "event"
    },
    {
      "inputs": [],
      "name": "MAX_QR_SCANS",
      "outputs": [
        {
          "internalType": "uint8",
          "name": "",
          "type": "uint8"
        }
      ],
      "stateMutability": "view",
      "type": "function"
    },
    {
      "inputs": [
        {
          "internalType": "address",
          "name": "_manufacturer",
          "type": "address"
        }
      ],
      "name": "addManufacturer",
      "outputs": [],
      "stateMutability": "nonpayable",
      "type": "function"
    },
    {
      "inputs": [
        {
          "internalType": "string",
          "name": "_name",
          "type": "string"
        },
        {
          "internalType": "string",
          "name": "_batchId",
          "type": "string"
        }
      ],
      "name": "addProduct",
      "outputs": [],
      "stateMutability": "nonpayable",
      "type": "function"
    },
    {
      "inputs": [
        {
          "internalType": "address",
          "name": "_seller",
          "type": "address"
        }
      ],
      "name": "addSeller",
      "outputs": [],
      "stateMutability": "nonpayable",
      "type": "function"
    },
    {
      "inputs": [
        {
          "internalType": "uint256",
          "name": "productId",
          "type": "uint256"
        }
      ],
      "name": "getProduct",
      "outputs": [
        {
          "internalType": "string",
          "name": "name",
          "type": "string"
        },
        {
          "internalType": "string",
          "name": "batchId",
          "type": "string"
        },
        {
          "internalType": "address",
          "name": "manufacturer",
          "type": "address"
        },
        {
          "internalType": "address",
          "name": "currentOwner",
          "type": "address"
        },
        {
          "internalType": "address[]",
          "name": "ownershipHistory",
          "type": "address[]"
        },
        {
          "internalType": "uint8",
          "name": "scanCount",
          "type": "uint8"
        }
      ],
      "stateMutability": "view",
      "type": "function"
    },
    {
      "inputs": [
        {
          "internalType": "uint256",
          "name": "productId",
          "type": "uint256"
        }
      ],
      "name": "isQRCodeValid",
      "outputs": [
        {
          "internalType": "bool",
          "name": "",
          "type": "bool"
        }
      ],
      "stateMutability": "view",
      "type": "function"
    },
    {
      "inputs": [],
      "name": "owner",
      "outputs": [
        {
          "internalType": "address",
          "name": "",
          "type": "address"
        }
      ],
      "stateMutability": "view",
      "type": "function"
    },
    {
      "inputs": [],
      "name": "productCounter",
      "outputs": [
        {
          "internalType": "uint256",
          "name": "",
          "type": "uint256"
        }
      ],
      "stateMutability": "view",
      "type": "function"
    },
    {
      "inputs": [
        {
          "internalType": "uint256",
          "name": "",
          "type": "uint256"
        }
      ],
      "name": "products",
      "outputs": [
        {
          "internalType": "uint256",
          "name": "productId",
          "type": "uint256"
        },
        {
          "internalType": "string",
          "name": "name",
          "type": "string"
        },
        {
          "internalType": "string",
          "name": "batchId",
          "type": "string"
        },
        {
          "internalType": "address",
          "name": "manufacturer",
          "type": "address"
        },
        {
          "internalType": "address",
          "name": "currentOwner",
          "type": "address"
        },
        {
          "internalType": "bool",
          "name": "exists",
          "type": "bool"
        }
      ],
      "stateMutability": "view",
      "type": "function"
    },
    {
      "inputs": [
        {
          "internalType": "uint256",
          "name": "",
          "type": "uint256"
        }
      ],
      "name": "qrScanCount",
      "outputs": [
        {
          "internalType": "uint8",
          "name": "",
          "type": "uint8"
        }
      ],
      "stateMutability": "view",
      "type": "function"
    },
    {
      "inputs": [
        {
          "internalType": "uint256",
          "name": "productId",
          "type": "uint256"
        }
      ],
      "name": "recordQRScan",
      "outputs": [],
      "stateMutability": "nonpayable",
      "type": "function"
    },
    {
      "inputs": [
        {
          "internalType": "address",
          "name": "",
          "type": "address"
        }
      ],
      "name": "roles",
      "outputs": [
        {
          "internalType": "enum VerifiEye.Role",
          "name": "",
          "type": "uint8"
        }
      ],
      "stateMutability": "view",
      "type": "function"
    },
    {
      "inputs": [
        {
          "internalType": "uint256",
          "name": "productId",
          "type": "uint256"
        },
        {
          "internalType": "address",
          "name": "_seller",
          "type": "address"
        }
      ],
      "name": "transferToSeller",
      "outputs": [],
      "stateMutability": "nonpayable",
      "type": "function"
    }
  ],
  "bytecode": "0x60806040526001805534801561001457600080fd5b50336000806101000a81548173ffffffffffffffffffffffffffffffffffffffff021916908373ffffffffffffffffffffffffffffffffffffffff1602179055506001600260003373ffffffffffffffffffffffffffffffffffffffff1673ffffffffffffffffffffffffffffffffffffffff16815260200190815260200160002060006101000a81548160ff021916908360038111156100b8576100b76100c2565b5b02179055506100f1565b7f4e487b7100000000000000000000000000000000000000000000000000000000600052602160045260246000fd5b611ef3806101006000396000f3fe608060405234801561001057600080fd5b50600436106100cf5760003560e01c8063993746421161008c578063c9f6d55d11610066578063c9f6d55d14610242578063ca2efb551461025e578063d93fabfa1461027a578063efec379a14610296576100cf565b806399374642146101ad578063a904738c146101dd578063b9db15b41461020d576100cf565b80631f16653b146100d457806322934e33146100f25780635f8a5afa146101225780637acc0b201461013e5780638da5cb5b1461017357806395b4a6dd14610191575b600080fd5b6100dc6102b4565b6040516100e991906111a3565b60405180910390f35b61010c600480360381019061010791906111fe565b6102ba565b6040516101199190611247565b60405180910390f35b61013c600480360381019061013791906112c0565b6102da565b005b610158600480360381019061015391906111fe565b6103d3565b60405161016a969594939291906113a7565b60405180910390f35b61017b61056c565b6040516101889190611416565b60405180910390f35b6101ab60048036038101906101a69190611431565b610590565b005b6101c760048036038101906101c291906112c0565b61090a565b6040516101d491906114e8565b60405180910390f35b6101f760048036038101906101f291906111fe565b61092a565b6040516102049190611503565b60405180910390f35b610227600480360381019061022291906111fe565b610989565b604051610239969594939291906115dc565b60405180910390f35b61025c600480360381019061025791906111fe565b610c3a565b005b61027860048036038101906102739190611787565b610dc1565b005b610294600480360381019061028f91906112c0565b611025565b005b61029e611185565b6040516102ab9190611247565b60405180910390f35b60015481565b60046020528060005260406000206000915054906101000a900460ff1681565b60008054906101000a900473ffffffffffffffffffffffffffffffffffffffff1673ffffffffffffffffffffffffffffffffffffffff163373ffffffffffffffffffffffffffffffffffffffff1614610368576040517f08c379a000000000000000000000000000000000000000000000000000000000815260040161035f9061184b565b60405180910390fd5b6001600260008373ffffffffffffffffffffffffffffffffffffffff1673ffffffffffffffffffffffffffffffffffffffff16815260200190815260200160002060006101000a81548160ff021916908360038111156103cb576103ca611471565b5b021790555050565b60036020528060005260406000206000915090508060000154908060010180546103fc9061189a565b80601f01602080910402602001604051908101604052809291908181526020018280546104289061189a565b80156104755780601f1061044a57610100808354040283529160200191610475565b820191906000526020600020905b81548152906001019060200180831161045857829003601f168201915b50505050509080600201805461048a9061189a565b80601f01602080910402602001604051908101604052809291908181526020018280546104b69061189a565b80156105035780601f106104d857610100808354040283529160200191610503565b820191906000526020600020905b8154815290600101906020018083116104e657829003601f168201915b5050505050908060030160009054906101000a900473ffffffffffffffffffffffffffffffffffffffff16908060040160009054906101000a900473ffffffffffffffffffffffffffffffffffffffff16908060060160009054906101000a900460ff16905086565b60008054906101000a900473ffffffffffffffffffffffffffffffffffffffff1681565b600160038111156105a4576105a3611471565b5b600260003373ffffffffffffffffffffffffffffffffffffffff1673ffffffffffffffffffffffffffffffffffffffff16815260200190815260200160002060009054906101000a900460ff16600381111561060357610602611471565b5b14610643576040517f08c379a000000000000000000000000000000000000000000000000000000000815260040161063a90611917565b60405180910390fd5b6003600083815260200190815260200160002060060160009054906101000a900460ff166106a6576040517f08c379a000000000000000000000000000000000000000000000000000000000815260040161069d90611983565b60405180910390fd5b600260038111156106ba576106b9611471565b5b600260008373ffffffffffffffffffffffffffffffffffffffff1673ffffffffffffffffffffffffffffffffffffffff16815260200190815260200160002060009054906101000a900460ff16600381111561071957610718611471565b5b14610759576040517f08c379a0000000000000000000000000000000000000000000000000000000008152600401610750906119ef565b60405180910390fd5b60006003600084815260200190815260200160002090508060040160009054906101000a900473ffffffffffffffffffffffffffffffffffffffff1673ffffffffffffffffffffffffffffffffffffffff163373ffffffffffffffffffffffffffffffffffffffff1614610802576040517f08c379a00000000000000000000000000000000000000000000000000000000081526004016107f990611a5b565b60405180910390fd5b818160040160006101000a81548173ffffffffffffffffffffffffffffffffffffffff021916908373ffffffffffffffffffffffffffffffffffffffff16021790555080600501829080600181540180825580915050600190039060005260206000200160009091909190916101000a81548173ffffffffffffffffffffffffffffffffffffffff021916908373ffffffffffffffffffffffffffffffffffffffff1602179055508173ffffffffffffffffffffffffffffffffffffffff163373ffffffffffffffffffffffffffffffffffffffff16847f16b85f49bf01212961345d3016c9a531894accf62eb7680f2045d79185cc0ec060405160405180910390a4505050565b60026020528060005260406000206000915054906101000a900460ff1681565b60006003600083815260200190815260200160002060060160009054906101000a900460ff1680156109825750600360ff166004600084815260200190815260200160002060009054906101000a900460ff1660ff16105b9050919050565b606080600080606060006003600088815260200190815260200160002060060160009054906101000a900460ff166109f6576040517f08c379a00000000000000000000000000000000000000000000000000000000081526004016109ed90611ac7565b60405180910390fd5b600060036000898152602001908152602001600020905080600101816002018260030160009054906101000a900473ffffffffffffffffffffffffffffffffffffffff168360040160009054906101000a900473ffffffffffffffffffffffffffffffffffffffff1684600501600460008e815260200190815260200160002060009054906101000a900460ff16858054610a909061189a565b80601f0160208091040260200160405190810160405280929190818152602001828054610abc9061189a565b8015610b095780601f10610ade57610100808354040283529160200191610b09565b820191906000526020600020905b815481529060010190602001808311610aec57829003601f168201915b50505050509550848054610b1c9061189a565b80601f0160208091040260200160405190810160405280929190818152602001828054610b489061189a565b8015610b955780601f10610b6a57610100808354040283529160200191610b95565b820191906000526020600020905b815481529060010190602001808311610b7857829003601f168201915b5050505050945081805480602002602001604051908101604052809291908181526020018280548015610c1d57602002820191906000526020600020905b8160009054906101000a900473ffffffffffffffffffffffffffffffffffffffff1673ffffffffffffffffffffffffffffffffffffffff1681526020019060010190808311610bd3575b505050505091509650965096509650965096505091939550919395565b6003600082815260200190815260200160002060060160009054906101000a900460ff16610c9d576040517f08c379a0000000000000000000000000000000000000000000000000000000008152600401610c9490611ac7565b60405180910390fd5b600360ff166004600083815260200190815260200160002060009054906101000a900460ff1660ff1610610d06576040517f08c379a0000000000000000000000000000000000000000000000000000000008152600401610cfd90611b33565b60405180910390fd5b60046000828152602001908152602001600020600081819054906101000a900460ff1680929190610d3690611b82565b91906101000a81548160ff021916908360ff160217905550503373ffffffffffffffffffffffffffffffffffffffff16817fd14831bd85236fa626e201b40d3bbee5349e33ed78b6be57b21473e29d7ddd496004600085815260200190815260200160002060009054906101000a900460ff16604051610db69190611be6565b60405180910390a350565b60016003811115610dd557610dd4611471565b5b600260003373ffffffffffffffffffffffffffffffffffffffff1673ffffffffffffffffffffffffffffffffffffffff16815260200190815260200160002060009054906101000a900460ff166003811115610e3457610e33611471565b5b14610e74576040517f08c379a0000000000000000000000000000000000000000000000000000000008152600401610e6b90611917565b60405180910390fd5b600060016000815480929190610e8990611c01565b919050559050600060036000838152602001908152602001600020905081816000018190555083816001019081610ec09190611deb565b5082816002019081610ed29190611deb565b50338160030160006101000a81548173ffffffffffffffffffffffffffffffffffffffff021916908373ffffffffffffffffffffffffffffffffffffffff160217905550338160040160006101000a81548173ffffffffffffffffffffffffffffffffffffffff021916908373ffffffffffffffffffffffffffffffffffffffff16021790555080600501339080600181540180825580915050600190039060005260206000200160009091909190916101000a81548173ffffffffffffffffffffffffffffffffffffffff021916908373ffffffffffffffffffffffffffffffffffffffff16021790555060018160060160006101000a81548160ff0219169083151502179055503373ffffffffffffffffffffffffffffffffffffffff16827f61394ce83505fd053362beef6b6476dc5cdd4e4dd515dd026ee6ed7f4d473cd060405160405180910390a350505050565b6001600381111561103957611038611471565b5b600260003373ffffffffffffffffffffffffffffffffffffffff1673ffffffffffffffffffffffffffffffffffffffff16815260200190815260200160002060009054906101000a900460ff16600381111561109857611097611471565b5b146110d8576040517f08c379a00000000000000000000000000000000000000000000000000000000081526004016110cf90611917565b60405180910390fd5b60028060008373ffffffffffffffffffffffffffffffffffffffff1673ffffffffffffffffffffffffffffffffffffffff16815260200190815260200160002060006101000a81548160ff0219169083600381111561113a57611139611471565b5b02179055508073ffffffffffffffffffffffffffffffffffffffff167f3d78526f2568d430fd8e20719601f7bc3f979936f8880236cc284e8127251b4260405160405180910390a250565b600381565b6000819050919050565b61119d8161118a565b82525050565b60006020820190506111b86000830184611194565b92915050565b6000604051905090565b600080fd5b600080fd5b6111db8161118a565b81146111e657600080fd5b50565b6000813590506111f8816111d2565b92915050565b600060208284031215611214576112136111c8565b5b6000611222848285016111e9565b91505092915050565b600060ff82169050919050565b6112418161122b565b82525050565b600060208201905061125c6000830184611238565b92915050565b600073ffffffffffffffffffffffffffffffffffffffff82169050919050565b600061128d82611262565b9050919050565b61129d81611282565b81146112a857600080fd5b50565b6000813590506112ba81611294565b92915050565b6000602082840312156112d6576112d56111c8565b5b60006112e4848285016112ab565b91505092915050565b600081519050919050565b600082825260208201905092915050565b60005b8381101561132757808201518184015260208101905061130c565b60008484015250505050565b6000601f19601f8301169050919050565b600061134f826112ed565b61135981856112f8565b9350611369818560208601611309565b61137281611333565b840191505092915050565b61138681611282565b82525050565b60008115159050919050565b6113a18161138c565b82525050565b600060c0820190506113bc6000830189611194565b81810360208301526113ce8188611344565b905081810360408301526113e28187611344565b90506113f1606083018661137d565b6113fe608083018561137d565b61140b60a0830184611398565b979650505050505050565b600060208201905061142b600083018461137d565b92915050565b60008060408385031215611448576114476111c8565b5b6000611456858286016111e9565b9250506020611467858286016112ab565b9150509250929050565b7f4e487b7100000000000000000000000000000000000000000000000000000000600052602160045260246000fd5b600481106114b1576114b0611471565b5b50565b60008190506114c2826114a0565b919050565b60006114d2826114b4565b9050919050565b6114e2816114c7565b82525050565b60006020820190506114fd60008301846114d9565b92915050565b60006020820190506115186000830184611398565b92915050565b600081519050919050565b600082825260208201905092915050565b6000819050602082019050919050565b61155381611282565b82525050565b6000611565838361154a565b60208301905092915050565b6000602082019050919050565b60006115898261151e565b6115938185611529565b935061159e8361153a565b8060005b838110156115cf5781516115b68882611559565b97506115c183611571565b9250506001810190506115a2565b5085935050505092915050565b600060c08201905081810360008301526115f68189611344565b9050818103602083015261160a8188611344565b9050611619604083018761137d565b611626606083018661137d565b8181036080830152611638818561157e565b905061164760a0830184611238565b979650505050505050565b600080fd5b600080fd5b7f4e487b7100000000000000000000000000000000000000000000000000000000600052604160045260246000fd5b61169482611333565b810181811067ffffffffffffffff821117156116b3576116b261165c565b5b80604052505050565b60006116c66111be565b90506116d2828261168b565b919050565b600067ffffffffffffffff8211156116f2576116f161165c565b5b6116fb82611333565b9050602081019050919050565b82818337600083830152505050565b600061172a611725846116d7565b6116bc565b90508281526020810184848401111561174657611745611657565b5b611751848285611708565b509392505050565b600082601f83011261176e5761176d611652565b5b813561177e848260208601611717565b91505092915050565b6000806040838503121561179e5761179d6111c8565b5b600083013567ffffffffffffffff8111156117bc576117bb6111cd565b5b6117c885828601611759565b925050602083013567ffffffffffffffff8111156117e9576117e86111cd565b5b6117f585828601611759565b9150509250929050565b7f4e6f7420636f6e7472616374206f776e65720000000000000000000000000000600082015250565b60006118356012836112f8565b9150611840826117ff565b602082019050919050565b6000602082019050818103600083015261186481611828565b9050919050565b7f4e487b7100000000000000000000000000000000000000000000000000000000600052602260045260246000fd5b600060028204905060018216806118b257607f821691505b6020821081036118c5576118c461186b565b5b50919050565b7f4e6f742061206d616e7566616374757265720000000000000000000000000000600082015250565b60006119016012836112f8565b915061190c826118cb565b602082019050919050565b60006020820190508181036000830152611930816118f4565b9050919050565b7f496e76616c69642070726f647563740000000000000000000000000000000000600082015250565b600061196d600f836112f8565b915061197882611937565b602082019050919050565b6000602082019050818103600083015261199c81611960565b9050919050565b7f41646472657373206973206e6f7420612073656c6c6572000000000000000000600082015250565b60006119d96017836112f8565b91506119e4826119a3565b602082019050919050565b60006020820190508181036000830152611a08816119cc565b9050919050565b7f556e617574686f72697a6564207472616e736665720000000000000000000000600082015250565b6000611a456015836112f8565b9150611a5082611a0f565b602082019050919050565b60006020820190508181036000830152611a7481611a38565b9050919050565b7f50726f64756374206e6f7420666f756e64000000000000000000000000000000600082015250565b6000611ab16011836112f8565b9150611abc82611a7b565b602082019050919050565b60006020820190508181036000830152611ae081611aa4565b9050919050565b7f5152207363616e206c696d697420726561636865640000000000000000000000600082015250565b6000611b1d6015836112f8565b9150611b2882611ae7565b602082019050919050565b60006020820190508181036000830152611b4c81611b10565b9050919050565b7f4e487b7100000000000000000000000000000000000000000000000000000000600052601160045260246000fd5b6000611b8d8261122b565b915060ff8203611ba057611b9f611b53565b5b600182019050919050565b6000819050919050565b6000611bd0611bcb611bc68461122b565b611bab565b61118a565b9050919050565b611be081611bb5565b82525050565b6000602082019050611bfb6000830184611bd7565b92915050565b6000611c0c8261118a565b91507fffffffffffffffffffffffffffffffffffffffffffffffffffffffffffffffff8203611c3e57611c3d611b53565b5b600182019050919050565b60008190508160005260206000209050919050565b60006020601f8301049050919050565b600082821b905092915050565b600060088302611cab7fffffffffffffffffffffffffffffffffffffffffffffffffffffffffffffffff82611c6e565b611cb58683611c6e565b95508019841693508086168417925050509392505050565b6000611ce8611ce3611cde8461118a565b611bab565b61118a565b9050919050565b6000819050919050565b611d0283611ccd565b611d16611d0e82611cef565b848454611c7b565b825550505050565b600090565b611d2b611d1e565b611d36818484611cf9565b505050565b5b81811015611d5a57611d4f600082611d23565b600181019050611d3c565b5050565b601f821115611d9f57611d7081611c49565b611d7984611c5e565b81016020851015611d88578190505b611d9c611d9485611c5e565b830182611d3b565b50505b505050565b600082821c905092915050565b6000611dc260001984600802611da4565b1980831691505092915050565b6000611ddb8383611db1565b9150826002028217905092915050565b611df4826112ed565b67ffffffffffffffff811115611e0d57611e0c61165c565b5b611e17825461189a565b611e22828285611d5e565b600060209050601f831160018114611e555760008415611e43578287015190505b611e4d8582611dcf565b865550611eb5565b601f198416611e6386611c49565b60005b82811015611e8b57848901518255600182019150602085019450602081019050611e66565b86831015611ea85784890151611ea4601f891682611db1565b8355505b6001600288020188555050505b50505050505056fea2646970667358221220ebe329f06bde918073930893ade9b7ca8c8d5163be00bffdbd21f83fb69a7d5664736f6c634300081c0033",
  "linkReferences": {},
  "deployedLinkReferences": {}
}